:040000000CEF00F011
:10000800FACF2FF0FBCF30F0E9CF31F02BED04F031
:04001800D0EF09F02C
:10080000416372796C69632042656E64696E67004A
:100810004E696368726F6D65205769726500546830
:10082000652043757272656E7400484541544552A7
:10083000204F464600484541544552204F4E0054F3
:10084000494D453A20300054494D453A2000536FF8
:100850007572636500000600EACF32F0E1CF33F035
:10086000E2CF34F0D9CF35F0DACF36F0F3CF37F02E
:10087000F4CF38F0F6CF39F0F7CF3AF0F8CF3BF0BD
:10088000F5CF3CF0F2A401D001D038D0B10ED76E34
:10089000E00ED66E41C001F042C002F045EC06F019
:1008A00048504710D8B401D001D020D03E50800A23
:1008B000800F010ED8B43D5CD8A001D001D016D075
:1008C00040503F10D8A401D001D007D02D6E000EAB
:1008D0001A6E2D5057EC05F000D040BE01D001D06B
:1008E00005D03F06D8A0400601D000D048504710A0
:1008F000D8A401D001D001D0C282F2949EA001D030
:1009000001D0AFD0000ECE6E000ECF6E4850471013
:10091000D8B401D001D00DD03E50800A800F010E16
:10092000D8B43D5CD8A001D001D003D056EC08F07B
:1009300000D044BE01D001D004D04306D8A0440664
:100940000DD044AE01D001D009D046BE01D001D0B7
:1009500005D04506D8A0460601D000D0445043102B
:10096000D8A401D001D01FD0E9EC09F02D6E010E02
:10097000056E2D502E6E000E066E2E50080E086E5F
:100980001E0E076E3BEC09F02D6E020E056E2D500B
:100990002E6E000E066E2E50080E086E4E0E076E5E
:1009A0003BEC09F00ED046504510D8A401D001D040
:1009B00008D02D6E000E1A6E2D5057EC05F001D0A8
:1009C00000D080B201D001D03BD04A504910D8A409
:1009D00001D001D035D04D4A4E2A4D50030A4E1059
:1009E000D8A401D001D035D04F50D8B401D002D016
:1009F000010E01D0000E4F6E4FC01AF057EC05F0FB
:100A00003E50800A800F010ED8B43D5CD8A001D0C2
:100A100001D010D048504710D8B401D001D005D033
:100A20003DC03FF03EC040F005D0000E406E000ECD
:100A30003F6E00D0000E4E6E000E4D6E0AD009D0F3
:100A4000000E4E6E000E4D6E000E4A6E010E496E87
:100A500000D08030010B2D6E2D50496E4A6A9E9059
:100A600000D09EAC01D001D005D0C4CF41F0426A85
:100A70009E9C00D03CC0F5FF3BC0F8FF3AC0F7FF9A
:100A800039C0F6FF38C0F4FF37C0F3FF36C0DAFFD5
:100A900035C0D9FF34C0E2FF33C0E1FF32C0EAFF06
:100AA00031C0E9FF30C0FBFF2FC0FAFF11001A5020
:100AB000D8B401D001D055D08B80000E486E010E05
:100AC000476E8D80E9EC09F01B6E010E056E1B5020
:100AD0001C6E000E066E1C50080E086E350E076E5A
:100AE0003BEC09F01B6E020E056E1B501C6E000ED7
:100AF000066E1C50080E086E470E076E3BEC09F0A0
:100B0000000E136E1D0E126E000E046E640E036E48
:100B10003FC001F040C002F05DEC09F001C007F0F9
:100B200002C008F0000E0A6E3C0E096EAFEC06F033
:100B300007C014F008C015F0000E176E0A0E166EEE
:100B400016EC09F01B6E020E056E1B501C6E060E95
:100B5000066E1C50000E086E1D0E076E3BEC09F071
:100B600025D08B90000E486E000E476E8D90E9ECFC
:100B700009F01B6E010E056E1B501C6E000E066EFA
:100B80001C50080E086E2A0E076E3BEC09F01B6E17
:100B9000020E056E1B501C6E000E066E1C50080ED9
:100BA000086E3F0E076E3BEC09F000D01200F20E0B
:100BB000D36E030E926E000E936E000E956E000EB5
:100BC000946E000E966E000E896E000E8A6E000EF8
:100BD0008B6E000E8C6E000E8D6E8B908D90680E5D
:100BE0000001626FE40EE82EFED7622FFCD700F002
:100BF000680E0001626FE40EE82EFED7622FFCD76C
:100C000000F00001626F380E00010001606F00010A
:100C10006251000192EC09F00001626F060E0001C2
:100C20000001606F00016251000192EC09F00001C7
:100C3000626F0C0E00010001606F00016251000143
:100C400092EC09F0000EC26E0E0EC16E360EC06E32
:100C5000C2809D8CD596D594D582D590D59AD59CB9
:100C6000F28AF294B10ED76EE00ED66ED58ECD8A92
:100C7000CD88CD96CD92000ECF6E000ECE6E9E909A
:100C80009D80CD80F28CF28E12000250800A800F7F
:100C9000290ED8B4015CD8B001D001D005D0000E27
:100CA0003E6E000E3D6E00D00250800A800F290E6D
:100CB000D8B4015CD8A001D001D006D00D0E3E6E94
:100CC0007A0E3D6E8B8402D08B9400D00250800A45
:100CD000800F510ED8B4015CD8A001D001D006D04D
:100CE0001A0E3E6EF40E3D6E8C8402D08C9400D0B1
:100CF0000250800A800F790ED8B4015CD8A001D0D0
:100D000001D006D0280E3E6E6E0E3D6E8C8602D04F
:100D10008C9600D00250800A800FA10ED8B4015CDE
:100D2000D8A001D001D006D0350E3E6EE80E3D6E43
:100D30008B8C02D08B9C00D00250800A800FC90E91
:100D4000D8B4015CD8A001D001D006D0430E3E6ECD
:100D5000620E3D6E8B8E02D08B9E00D012000B6E09
:100D6000000E0D6E0B500AAE01D001D009D0096CF7
:100D70000A1ED8B00A2A0B6E010E0D6E0B5000D061
:100D800008AE01D001D007D0076C081ED8B0082AE1
:100D9000010E0D1A00D0000E0F6E000E0E6E0A50DE
:100DA0000910D8B401D001D028D00B6E010E0C6E02
:100DB0000B5005D0D89009360A360C2A00D00AAE5E
:100DC00001D001D0F7D701D000D0D8900E360F3621
:100DD0000950075C0A500858D8A001D001D006D0AD
:100DE0000950075E0A50085A0E8000D0D8900A3287
:100DF00009320C2EEAD701D000D00D50D8B401D062
:100E000001D005D00E6C0F1ED8B00F2A00D00EC036
:100E100007F00FC008F000D012000BC00FF00CC09C
:100E200010F000D00FC001F010C002F00DC003F0B0
:100E30000EC004F020EC08F001C00FF002C010F06A
:100E4000094A0A2A10500F10D8A401D001D0EAD7BD
:100E500000D009C0D9FF0AC0DAFF000EDF6E090614
:100E6000D8A00A0600D00BC001F00CC002F00DC0E3
:100E700003F00EC004F0BEEC08F00150116E0BC080
:100E800001F00CC002F00DC003F00EC004F020EC25
:100E900008F001C00BF002C00CF0090E116401D083
:100EA00001D002D0070E1126300E112609C0D9FF3D
:100EB0000AC0DAFF11C0DFFF0906D8A00A060C50ED
:100EC0000B10D8A401D001D0CED700D01200D7EC9F
:100ED00005F0000E446E060E436E000E466E060EC2
:100EE000456EDDEC09F000016A6F010E00010001A2
:100EF000646F00016A5100016B6F000E0001000178
:100F0000656F00016B51080E00010001676F100E44
:100F10000001666F00018BEC08F000016A6F020EA1
:100F200000010001646F00016A5100016B6F000E47
:100F300000010001656F00016B51080E0001000106
:100F4000676F000E0001666F00018BEC08F0FFD7A1
:100F50000CEF00F0056E000E086E0550020E0360E7
:100F600001D001D009D004500F0B8009086E08C0D1
:100F700001F0BCEC09F009D004500F0BC009086E59
:100F800008C001F0BCEC09F000D0000E076E000EA6
:100F9000066E0750800A800F100ED8B4065CD8A0E9
:100FA00001D001D002D014D013D0056E200E016EF6
:100FB0000550A8EC09F0064A072A0750800A800F5E
:100FC000100ED8B4065CD8A001D001D0EED700D066
:100FD00012001DD0000100016251F66EE96E070E8D
:100FE000EA6E000100016351EA6403D0EA6EEF503B
:100FF00003D0F76E0800F55000010001606F00019A
:101000007CEC09F000010001624B632B00D0000171
:1010100000016251F66EE96E070EEA6E00010001F2
:101020006351EA6403D0EA6EEF5003D0F76E080014
:10103000F5500009D8A401D001D0CCD700D01200BF
:10104000000E076E000E066E04500310D8B401D0D7
:1010500001D027D0056E010E086E055005D0D8903E
:1010600003360436082A00D004AE01D001D0F7D7E9
:1010700001D000D0D890063607360350015C0450EA
:101080000258D8A001D001D006D00350015E045010
:10109000025A068000D0D89004320332082EEAD7D4
:1010A00000D006C001F007C002F012001A6E020E56
:1010B000036E1A501B6E070E046E1B50AAEC07F04D
:1010C0001A6E020E056E1A501B6E000E066E1B5035
:1010D000080E086E470E076E3BEC09F0000E136E0B
:1010E0001C0E126E3FC014F040C015F0000E176EBB
:1010F0000A0E166E16EC09F01A6E020E056E1A50E4
:101100001B6E060E066E1B50000E086E1C0E076E40
:101110003BEC09F012000001686F000E00010001B5
:10112000696F00016851020E00010001646101D085
:1011300001D00ED00001000165510F0B80090001A4
:101140000001696F69C060F0000192EC09F00ED0F7
:101150000001000165510F0BC00900010001696F1A
:1011600069C060F0000192EC09F000D066C062F046
:1011700067C063F00001E9EC07F0120004500310AF
:10118000D8B401D001D023D0056E010E066E0550F3
:1011900005D0D89003360436062A00D004AE01D01C
:1011A00001D0F7D701D000D00350015C04500258A1
:1011B000D8A001D001D005D00350015E0450025ADE
:1011C00000D0D89004320332062EEED700D001C0F2
:1011D00001F002C002F0120014D00350F66EE96E66
:1011E000070EEA6E0450EA6403D0EA6EEF5003D0B3
:1011F000F76E0800F550016EA8EC09F0034A042AC6
:1012000000D00350F66EE96E070EEA6E0450EA64F1
:1012100003D0EA6EEF5003D0F76E0800F5500009D6
:10122000D8A401D001D0D9D700D0120012C018F034
:1012300013C019F015AE01D001D00DD012C0D9FFE6
:1012400013C0DAFF2D0EDF6E124A132A146C151E1E
:10125000D8B0152A00D012C009F013C00AF014C08B
:101260000BF015C00CF016C00DF017C00EF00DEC11
:1012700007F000D01200096E000E0A6E0950020E2F
:10128000056001D001D009D006500F0B80090A6E0D
:101290000AC001F0BCEC09F009D006500F0BC009E0
:1012A0000A6E0AC001F0BCEC09F000D007C003F0E0
:1012B00008C004F0ECEC08F01200000E066E000E00
:1012C000056E00D001A001D001D005D00350052645
:1012D0000450062200D0D89003360436D89002324B
:1012E000013202500110D8A401D001D0EBD705C0C3
:1012F00001F006C002F0120060C08AFF60C061F019
:10130000C00E0001611783503F0B000161118C6E0C
:101310008C808C8200F08C92FA0E00D000F0E82EC7
:10132000FCD7120060C08AFF60C061F0C00E0001EF
:10133000611783503F0B000161118C6E8C908C8281
:1013400000F08C92FA0E00D000F0E82EFCD71200CC
:1013500001C08AFF01C002F0C00E021683503F0B8D
:1013600002108C6E8C808C8200F08C92FA0E00D071
:1013700000F0E82EFCD7120001C08AFF01C002F085
:10138000C00E021683503F0B02108C6E8C908C8224
:1013900000F08C92FA0E00D000F0E82EFCD712007C
:1013A00000EE3DF0130EEE6AE806FDE1000EF86E69
:1013B000080EF76E000167EF07F00001626F010E83
:1013C00000010001606F00016251000192EC09F020
:1013D0001200036E010E016E0350BCEC09F0120006
:020000040020DA
:08000000FFFFFFFFFFFFFFFF00
:020000040030CA
:0E000000000B191EFF8080FF0FC00FE00F40A5
:00000001FF
